{
  "_format": "hh-sol-artifact-1",
  "contractName": "Create",
  "sourceName": "contracts/voting.sol",
  "abi": [
    {
      "inputs": [],
      "stateMutability": "nonpayable",
      "type": "constructor"
    },
    {
      "anonymous": false,
      "inputs": [
        {
          "indexed": true,
          "internalType": "uint256",
          "name": "candidateId",
          "type": "uint256"
        },
        {
          "indexed": false,
          "internalType": "string",
          "name": "position",
          "type": "string"
        },
        {
          "indexed": false,
          "internalType": "string",
          "name": "name",
          "type": "string"
        },
        {
          "indexed": false,
          "internalType": "string",
          "name": "image",
          "type": "string"
        },
        {
          "indexed": false,
          "internalType": "uint256",
          "name": "voteCount",
          "type": "uint256"
        },
        {
          "indexed": false,
          "internalType": "address",
          "name": "_address",
          "type": "address"
        }
      ],
      "name": "CandidateCreate",
      "type": "event"
    },
    {
      "anonymous": false,
      "inputs": [
        {
          "indexed": true,
          "internalType": "uint256",
          "name": "voter_voterId",
          "type": "uint256"
        },
        {
          "indexed": false,
          "internalType": "string",
          "name": "voter_name",
          "type": "string"
        },
        {
          "indexed": false,
          "internalType": "string",
          "name": "voter_NationalId",
          "type": "string"
        },
        {
          "indexed": false,
          "internalType": "address",
          "name": "voter_address",
          "type": "address"
        },
        {
          "indexed": false,
          "internalType": "uint256",
          "name": "voter_allowed",
          "type": "uint256"
        },
        {
          "indexed": false,
          "internalType": "bool",
          "name": "voter_voted",
          "type": "bool"
        },
        {
          "indexed": false,
          "internalType": "uint256",
          "name": "voter_vote",
          "type": "uint256"
        }
      ],
      "name": "VoterCreated",
      "type": "event"
    },
    {
      "inputs": [],
      "name": "_candidateId",
      "outputs": [
        {
          "internalType": "uint256",
          "name": "_value",
          "type": "uint256"
        }
      ],
      "stateMutability": "view",
      "type": "function"
    },
    {
      "inputs": [],
      "name": "_voterId",
      "outputs": [
        {
          "internalType": "uint256",
          "name": "_value",
          "type": "uint256"
        }
      ],
      "stateMutability": "view",
      "type": "function"
    },
    {
      "inputs": [
        {
          "internalType": "uint256",
          "name": "",
          "type": "uint256"
        }
      ],
      "name": "candidateAddress",
      "outputs": [
        {
          "internalType": "address",
          "name": "",
          "type": "address"
        }
      ],
      "stateMutability": "view",
      "type": "function"
    },
    {
      "inputs": [
        {
          "internalType": "address",
          "name": "",
          "type": "address"
        }
      ],
      "name": "candidates",
      "outputs": [
        {
          "internalType": "uint256",
          "name": "candidateId",
          "type": "uint256"
        },
        {
          "internalType": "string",
          "name": "position",
          "type": "string"
        },
        {
          "internalType": "string",
          "name": "name",
          "type": "string"
        },
        {
          "internalType": "string",
          "name": "image",
          "type": "string"
        },
        {
          "internalType": "uint256",
          "name": "voteCount",
          "type": "uint256"
        },
        {
          "internalType": "address",
          "name": "_address",
          "type": "address"
        }
      ],
      "stateMutability": "view",
      "type": "function"
    },
    {
      "inputs": [],
      "name": "getCandidate",
      "outputs": [
        {
          "internalType": "address[]",
          "name": "",
          "type": "address[]"
        }
      ],
      "stateMutability": "view",
      "type": "function"
    },
    {
      "inputs": [],
      "name": "getCandidateLength",
      "outputs": [
        {
          "internalType": "uint256",
          "name": "",
          "type": "uint256"
        }
      ],
      "stateMutability": "view",
      "type": "function"
    },
    {
      "inputs": [
        {
          "internalType": "address",
          "name": "_address",
          "type": "address"
        }
      ],
      "name": "getCandidatedata",
      "outputs": [
        {
          "internalType": "string",
          "name": "",
          "type": "string"
        },
        {
          "internalType": "string",
          "name": "",
          "type": "string"
        },
        {
          "internalType": "uint256",
          "name": "",
          "type": "uint256"
        },
        {
          "internalType": "string",
          "name": "",
          "type": "string"
        },
        {
          "internalType": "uint256",
          "name": "",
          "type": "uint256"
        },
        {
          "internalType": "address",
          "name": "",
          "type": "address"
        }
      ],
      "stateMutability": "view",
      "type": "function"
    },
    {
      "inputs": [],
      "name": "getOrganizer",
      "outputs": [
        {
          "internalType": "address",
          "name": "",
          "type": "address"
        }
      ],
      "stateMutability": "view",
      "type": "function"
    },
    {
      "inputs": [],
      "name": "getVotedVoterList",
      "outputs": [
        {
          "internalType": "address[]",
          "name": "",
          "type": "address[]"
        }
      ],
      "stateMutability": "view",
      "type": "function"
    },
    {
      "inputs": [],
      "name": "getVoterLength",
      "outputs": [
        {
          "internalType": "uint256",
          "name": "",
          "type": "uint256"
        }
      ],
      "stateMutability": "view",
      "type": "function"
    },
    {
      "inputs": [],
      "name": "getVoterList",
      "outputs": [
        {
          "internalType": "address[]",
          "name": "",
          "type": "address[]"
        }
      ],
      "stateMutability": "view",
      "type": "function"
    },
    {
      "inputs": [
        {
          "internalType": "address",
          "name": "_address",
          "type": "address"
        }
      ],
      "name": "getVoterdata",
      "outputs": [
        {
          "internalType": "uint256",
          "name": "",
          "type": "uint256"
        },
        {
          "internalType": "string",
          "name": "",
          "type": "string"
        },
        {
          "internalType": "string",
          "name": "",
          "type": "string"
        },
        {
          "internalType": "address",
          "name": "",
          "type": "address"
        },
        {
          "internalType": "uint256",
          "name": "",
          "type": "uint256"
        },
        {
          "internalType": "bool",
          "name": "",
          "type": "bool"
        }
      ],
      "stateMutability": "view",
      "type": "function"
    },
    {
      "inputs": [
        {
          "internalType": "address",
          "name": "_address",
          "type": "address"
        },
        {
          "internalType": "string",
          "name": "_position",
          "type": "string"
        },
        {
          "internalType": "string",
          "name": "_name",
          "type": "string"
        },
        {
          "internalType": "string",
          "name": "_image",
          "type": "string"
        }
      ],
      "name": "setCandidate",
      "outputs": [],
      "stateMutability": "nonpayable",
      "type": "function"
    },
    {
      "inputs": [
        {
          "internalType": "address",
          "name": "_candidateAddress",
          "type": "address"
        },
        {
          "internalType": "uint256",
          "name": "_candidateVoteId",
          "type": "uint256"
        }
      ],
      "name": "vote",
      "outputs": [],
      "stateMutability": "nonpayable",
      "type": "function"
    },
    {
      "inputs": [
        {
          "internalType": "uint256",
          "name": "",
          "type": "uint256"
        }
      ],
      "name": "votedVoters",
      "outputs": [
        {
          "internalType": "address",
          "name": "",
          "type": "address"
        }
      ],
      "stateMutability": "view",
      "type": "function"
    },
    {
      "inputs": [
        {
          "internalType": "address",
          "name": "_address",
          "type": "address"
        },
        {
          "internalType": "string",
          "name": "_name",
          "type": "string"
        },
        {
          "internalType": "string",
          "name": "_nationalId",
          "type": "string"
        }
      ],
      "name": "voterRight",
      "outputs": [],
      "stateMutability": "nonpayable",
      "type": "function"
    },
    {
      "inputs": [
        {
          "internalType": "address",
          "name": "",
          "type": "address"
        }
      ],
      "name": "voters",
      "outputs": [
        {
          "internalType": "uint256",
          "name": "voter_voterId",
          "type": "uint256"
        },
        {
          "internalType": "string",
          "name": "voter_name",
          "type": "string"
        },
        {
          "internalType": "string",
          "name": "voter_NationalId",
          "type": "string"
        },
        {
          "internalType": "address",
          "name": "voter_address",
          "type": "address"
        },
        {
          "internalType": "uint256",
          "name": "voter_allowed",
          "type": "uint256"
        },
        {
          "internalType": "bool",
          "name": "voter_voted",
          "type": "bool"
        },
        {
          "internalType": "uint256",
          "name": "voter_vote",
          "type": "uint256"
        }
      ],
      "stateMutability": "view",
      "type": "function"
    },
    {
      "inputs": [
        {
          "internalType": "uint256",
          "name": "",
          "type": "uint256"
        }
      ],
      "name": "votersAddress",
      "outputs": [
        {
          "internalType": "address",
          "name": "",
          "type": "address"
        }
      ],
      "stateMutability": "view",
      "type": "function"
    },
    {
      "inputs": [],
      "name": "votingOrganizer",
      "outputs": [
        {
          "internalType": "address",
          "name": "",
          "type": "address"
        }
      ],
      "stateMutability": "view",
      "type": "function"
    }
  ],
  "bytecode": "0x608060405234801561001057600080fd5b5033600260006101000a81548173ffffffffffffffffffffffffffffffffffffffff021916908373ffffffffffffffffffffffffffffffffffffffff1602179055506123bf806100616000396000f3fe608060405234801561001057600080fd5b50600436106101215760003560e01c80638ab66a90116100ad578063b63c82ca11610071578063b63c82ca14610329578063b9be31521461035e578063c2def3b91461037c578063c5036fd41461039a578063f7522a83146103cf57610121565b80638ab66a90146102645780638e94568514610299578063a3ec138d146102b7578063a7388967146102ed578063b28d92ae1461030b57610121565b806343242daa116100f457806343242daa146101ac5780635cc48aa7146101dc5780635f74bbde146101fa57806370218b85146102165780637831ffb31461023457610121565b806305ad45a4146101265780631ddfe84b1461014457806337f15e7d146101605780633a88251a1461017c575b600080fd5b61012e6103ed565b60405161013b91906116ac565b60405180910390f35b61015e6004803603810190610159919061187f565b6103fa565b005b61017a6004803603810190610175919061190a565b6105cd565b005b610196600480360381019061019191906119f1565b6107f3565b6040516101a39190611a2d565b60405180910390f35b6101c660048036038101906101c191906119f1565b610832565b6040516101d39190611a2d565b60405180910390f35b6101e4610871565b6040516101f19190611a2d565b60405180910390f35b610214600480360381019061020f9190611a48565b610897565b005b61021e610a5e565b60405161022b9190611b46565b60405180910390f35b61024e600480360381019061024991906119f1565b610aec565b60405161025b9190611a2d565b60405180910390f35b61027e60048036038101906102799190611b68565b610b2b565b60405161029096959493929190611c14565b60405180910390f35b6102a1610d1f565b6040516102ae9190611b46565b60405180910390f35b6102d160048036038101906102cc9190611b68565b610dad565b6040516102e49796959493929190611ca5565b60405180910390f35b6102f5610f2c565b60405161030291906116ac565b60405180910390f35b610313610f38565b6040516103209190611b46565b60405180910390f35b610343600480360381019061033e9190611b68565b610fc6565b60405161035596959493929190611d22565b60405180910390f35b610366611338565b60405161037391906116ac565b60405180910390f35b610384611344565b6040516103919190611a2d565b60405180910390f35b6103b460048036038101906103af9190611b68565b61136e565b6040516103c696959493929190611d98565b60405180910390f35b6103d7611662565b6040516103e491906116ac565b60405180910390f35b6000600680549050905090565b610404600061166f565b60006104106000611685565b90506000600760008673ffffffffffffffffffffffffffffffffffffffff1673ffffffffffffffffffffffffffffffffffffffff1681526020019081526020016000209050600081600401541461046657600080fd5b60018160040181905550838160010190816104819190612013565b50848160030160006101000a81548173ffffffffffffffffffffffffffffffffffffffff021916908373ffffffffffffffffffffffffffffffffffffffff160217905550818160000181905550828160020190816104df9190612013565b506103e8816006018190555060008160050160006101000a81548160ff0219169083151502179055506006859080600181540180825580915050600190039060005260206000200160009091909190916101000a81548173ffffffffffffffffffffffffffffffffffffffff021916908373ffffffffffffffffffffffffffffffffffffffff160217905550817f7a4901d37c233abe8a69cc2347f3038ed337dadbb8ed7cb7baab646d2dee993a85858885600401548660050160009054906101000a900460ff1687600601546040516105be969594939291906120e5565b60405180910390a25050505050565b3373ffffffffffffffffffffffffffffffffffffffff16600260009054906101000a900473ffffffffffffffffffffffffffffffffffffffff1673ffffffffffffffffffffffffffffffffffffffff161461065d576040517f08c379a0000000000000000000000000000000000000000000000000000000008152600401610654906121c6565b60405180910390fd5b610667600161166f565b60006106736001611685565b90506000600460008773ffffffffffffffffffffffffffffffffffffffff1673ffffffffffffffffffffffffffffffffffffffff1681526020019081526020016000209050848160010190816106c99190612013565b50838160020190816106db9190612013565b50818160000181905550828160030190816106f69190612013565b5060008160040181905550858160050160006101000a81548173ffffffffffffffffffffffffffffffffffffffff021916908373ffffffffffffffffffffffffffffffffffffffff1602179055506003869080600181540180825580915050600190039060005260206000200160009091909190916101000a81548173ffffffffffffffffffffffffffffffffffffffff021916908373ffffffffffffffffffffffffffffffffffffffff160217905550817f21282eb61fa1514e459f3a28de82c5bc2b190ff57145ee028248b147d26b903c86868685600401548b6040516107e39594939291906121e6565b60405180910390a2505050505050565b6003818154811061080357600080fd5b906000526020600020016000915054906101000a900473ffffffffffffffffffffffffffffffffffffffff1681565b6006818154811061084257600080fd5b906000526020600020016000915054906101000a900473ffffffffffffffffffffffffffffffffffffffff1681565b600260009054906101000a900473ffffffffffffffffffffffffffffffffffffffff1681565b6000600760003373ffffffffffffffffffffffffffffffffffffffff1673ffffffffffffffffffffffffffffffffffffffff16815260200190815260200160002090508060050160009054906101000a900460ff161561092c576040517f08c379a00000000000000000000000000000000000000000000000000000000081526004016109239061229a565b60405180910390fd5b6000816004015403610973576040517f08c379a000000000000000000000000000000000000000000000000000000000815260040161096a90612306565b60405180910390fd5b60018160050160006101000a81548160ff0219169083151502179055508181600601819055506005339080600181540180825580915050600190039060005260206000200160009091909190916101000a81548173ffffffffffffffffffffffffffffffffffffffff021916908373ffffffffffffffffffffffffffffffffffffffff1602179055508060040154600460008573ffffffffffffffffffffffffffffffffffffffff1673ffffffffffffffffffffffffffffffffffffffff1681526020019081526020016000206004016000828254610a529190612355565b92505081905550505050565b60606003805480602002602001604051908101604052809291908181526020018280548015610ae257602002820191906000526020600020905b8160009054906101000a900473ffffffffffffffffffffffffffffffffffffffff1673ffffffffffffffffffffffffffffffffffffffff1681526020019060010190808311610a98575b5050505050905090565b60058181548110610afc57600080fd5b906000526020600020016000915054906101000a900473ffffffffffffffffffffffffffffffffffffffff1681565b6004602052806000526040600020600091509050806000015490806001018054610b5490611e36565b80601f0160208091040260200160405190810160405280929190818152602001828054610b8090611e36565b8015610bcd5780601f10610ba257610100808354040283529160200191610bcd565b820191906000526020600020905b815481529060010190602001808311610bb057829003601f168201915b505050505090806002018054610be290611e36565b80601f0160208091040260200160405190810160405280929190818152602001828054610c0e90611e36565b8015610c5b5780601f10610c3057610100808354040283529160200191610c5b565b820191906000526020600020905b815481529060010190602001808311610c3e57829003601f168201915b505050505090806003018054610c7090611e36565b80601f0160208091040260200160405190810160405280929190818152602001828054610c9c90611e36565b8015610ce95780601f10610cbe57610100808354040283529160200191610ce9565b820191906000526020600020905b815481529060010190602001808311610ccc57829003601f168201915b5050505050908060040154908060050160009054906101000a900473ffffffffffffffffffffffffffffffffffffffff16905086565b60606005805480602002602001604051908101604052809291908181526020018280548015610da357602002820191906000526020600020905b8160009054906101000a900473ffffffffffffffffffffffffffffffffffffffff1673ffffffffffffffffffffffffffffffffffffffff1681526020019060010190808311610d59575b5050505050905090565b6007602052806000526040600020600091509050806000015490806001018054610dd690611e36565b80601f0160208091040260200160405190810160405280929190818152602001828054610e0290611e36565b8015610e4f5780601f10610e2457610100808354040283529160200191610e4f565b820191906000526020600020905b815481529060010190602001808311610e3257829003601f168201915b505050505090806002018054610e6490611e36565b80601f0160208091040260200160405190810160405280929190818152602001828054610e9090611e36565b8015610edd5780601f10610eb257610100808354040283529160200191610edd565b820191906000526020600020905b815481529060010190602001808311610ec057829003601f168201915b5050505050908060030160009054906101000a900473ffffffffffffffffffffffffffffffffffffffff16908060040154908060050160009054906101000a900460ff16908060060154905087565b60018060000154905081565b60606006805480602002602001604051908101604052809291908181526020018280548015610fbc57602002820191906000526020600020905b8160009054906101000a900473ffffffffffffffffffffffffffffffffffffffff1673ffffffffffffffffffffffffffffffffffffffff1681526020019060010190808311610f72575b5050505050905090565b60608060006060600080600460008873ffffffffffffffffffffffffffffffffffffffff1673ffffffffffffffffffffffffffffffffffffffff168152602001908152602001600020600101600460008973ffffffffffffffffffffffffffffffffffffffff1673ffffffffffffffffffffffffffffffffffffffff168152602001908152602001600020600201600460008a73ffffffffffffffffffffffffffffffffffffffff1673ffffffffffffffffffffffffffffffffffffffff16815260200190815260200160002060000154600460008b73ffffffffffffffffffffffffffffffffffffffff1673ffffffffffffffffffffffffffffffffffffffff168152602001908152602001600020600301600460008c73ffffffffffffffffffffffffffffffffffffffff1673ffffffffffffffffffffffffffffffffffffffff16815260200190815260200160002060040154600460008d73ffffffffffffffffffffffffffffffffffffffff1673ffffffffffffffffffffffffffffffffffffffff16815260200190815260200160002060050160009054906101000a900473ffffffffffffffffffffffffffffffffffffffff1685805461118b90611e36565b80601f01602080910402602001604051908101604052809291908181526020018280546111b790611e36565b80156112045780601f106111d957610100808354040283529160200191611204565b820191906000526020600020905b8154815290600101906020018083116111e757829003601f168201915b5050505050955084805461121790611e36565b80601f016020809104026020016040519081016040528092919081815260200182805461124390611e36565b80156112905780601f1061126557610100808354040283529160200191611290565b820191906000526020600020905b81548152906001019060200180831161127357829003601f168201915b505050505094508280546112a390611e36565b80601f01602080910402602001604051908101604052809291908181526020018280546112cf90611e36565b801561131c5780601f106112f15761010080835404028352916020019161131c565b820191906000526020600020905b8154815290600101906020018083116112ff57829003601f168201915b5050505050925095509550955095509550955091939550919395565b60008060000154905081565b6000600260009054906101000a900473ffffffffffffffffffffffffffffffffffffffff16905090565b60006060806000806000600760008873ffffffffffffffffffffffffffffffffffffffff1673ffffffffffffffffffffffffffffffffffffffff16815260200190815260200160002060000154600760008973ffffffffffffffffffffffffffffffffffffffff1673ffffffffffffffffffffffffffffffffffffffff168152602001908152602001600020600101600760008a73ffffffffffffffffffffffffffffffffffffffff1673ffffffffffffffffffffffffffffffffffffffff168152602001908152602001600020600201600760008b73ffffffffffffffffffffffffffffffffffffffff1673ffffffffffffffffffffffffffffffffffffffff16815260200190815260200160002060030160009054906101000a900473ffffffffffffffffffffffffffffffffffffffff16600760008c73ffffffffffffffffffffffffffffffffffffffff1673ffffffffffffffffffffffffffffffffffffffff16815260200190815260200160002060040154600760008d73ffffffffffffffffffffffffffffffffffffffff1673ffffffffffffffffffffffffffffffffffffffff16815260200190815260200160002060050160009054906101000a900460ff1684805461154190611e36565b80601f016020809104026020016040519081016040528092919081815260200182805461156d90611e36565b80156115ba5780601f1061158f576101008083540402835291602001916115ba565b820191906000526020600020905b81548152906001019060200180831161159d57829003601f168201915b505050505094508380546115cd90611e36565b80601f01602080910402602001604051908101604052809291908181526020018280546115f990611e36565b80156116465780601f1061161b57610100808354040283529160200191611646565b820191906000526020600020905b81548152906001019060200180831161162957829003601f168201915b5050505050935095509550955095509550955091939550919395565b6000600380549050905090565b6001816000016000828254019250508190555050565b600081600001549050919050565b6000819050919050565b6116a681611693565b82525050565b60006020820190506116c1600083018461169d565b92915050565b6000604051905090565b600080fd5b600080fd5b600073ffffffffffffffffffffffffffffffffffffffff82169050919050565b6000611706826116db565b9050919050565b611716816116fb565b811461172157600080fd5b50565b6000813590506117338161170d565b92915050565b600080fd5b600080fd5b6000601f19601f8301169050919050565b7f4e487b7100000000000000000000000000000000000000000000000000000000600052604160045260246000fd5b61178c82611743565b810181811067ffffffffffffffff821117156117ab576117aa611754565b5b80604052505050565b60006117be6116c7565b90506117ca8282611783565b919050565b600067ffffffffffffffff8211156117ea576117e9611754565b5b6117f382611743565b9050602081019050919050565b82818337600083830152505050565b600061182261181d846117cf565b6117b4565b90508281526020810184848401111561183e5761183d61173e565b5b611849848285611800565b509392505050565b600082601f83011261186657611865611739565b5b813561187684826020860161180f565b91505092915050565b600080600060608486031215611898576118976116d1565b5b60006118a686828701611724565b935050602084013567ffffffffffffffff8111156118c7576118c66116d6565b5b6118d386828701611851565b925050604084013567ffffffffffffffff8111156118f4576118f36116d6565b5b61190086828701611851565b9150509250925092565b60008060008060808587031215611924576119236116d1565b5b600061193287828801611724565b945050602085013567ffffffffffffffff811115611953576119526116d6565b5b61195f87828801611851565b935050604085013567ffffffffffffffff8111156119805761197f6116d6565b5b61198c87828801611851565b925050606085013567ffffffffffffffff8111156119ad576119ac6116d6565b5b6119b987828801611851565b91505092959194509250565b6119ce81611693565b81146119d957600080fd5b50565b6000813590506119eb816119c5565b92915050565b600060208284031215611a0757611a066116d1565b5b6000611a15848285016119dc565b91505092915050565b611a27816116fb565b82525050565b6000602082019050611a426000830184611a1e565b92915050565b60008060408385031215611a5f57611a5e6116d1565b5b6000611a6d85828601611724565b9250506020611a7e858286016119dc565b9150509250929050565b600081519050919050565b600082825260208201905092915050565b6000819050602082019050919050565b611abd816116fb565b82525050565b6000611acf8383611ab4565b60208301905092915050565b6000602082019050919050565b6000611af382611a88565b611afd8185611a93565b9350611b0883611aa4565b8060005b83811015611b39578151611b208882611ac3565b9750611b2b83611adb565b925050600181019050611b0c565b5085935050505092915050565b60006020820190508181036000830152611b608184611ae8565b905092915050565b600060208284031215611b7e57611b7d6116d1565b5b6000611b8c84828501611724565b91505092915050565b600081519050919050565b600082825260208201905092915050565b60005b83811015611bcf578082015181840152602081019050611bb4565b60008484015250505050565b6000611be682611b95565b611bf08185611ba0565b9350611c00818560208601611bb1565b611c0981611743565b840191505092915050565b600060c082019050611c29600083018961169d565b8181036020830152611c3b8188611bdb565b90508181036040830152611c4f8187611bdb565b90508181036060830152611c638186611bdb565b9050611c72608083018561169d565b611c7f60a0830184611a1e565b979650505050505050565b60008115159050919050565b611c9f81611c8a565b82525050565b600060e082019050611cba600083018a61169d565b8181036020830152611ccc8189611bdb565b90508181036040830152611ce08188611bdb565b9050611cef6060830187611a1e565b611cfc608083018661169d565b611d0960a0830185611c96565b611d1660c083018461169d565b98975050505050505050565b600060c0820190508181036000830152611d3c8189611bdb565b90508181036020830152611d508188611bdb565b9050611d5f604083018761169d565b8181036060830152611d718186611bdb565b9050611d80608083018561169d565b611d8d60a0830184611a1e565b979650505050505050565b600060c082019050611dad600083018961169d565b8181036020830152611dbf8188611bdb565b90508181036040830152611dd38187611bdb565b9050611de26060830186611a1e565b611def608083018561169d565b611dfc60a0830184611c96565b979650505050505050565b7f4e487b7100000000000000000000000000000000000000000000000000000000600052602260045260246000fd5b60006002820490506001821680611e4e57607f821691505b602082108103611e6157611e60611e07565b5b50919050565b60008190508160005260206000209050919050565b60006020601f8301049050919050565b600082821b905092915050565b600060088302611ec97fffffffffffffffffffffffffffffffffffffffffffffffffffffffffffffffff82611e8c565b611ed38683611e8c565b95508019841693508086168417925050509392505050565b6000819050919050565b6000611f10611f0b611f0684611693565b611eeb565b611693565b9050919050565b6000819050919050565b611f2a83611ef5565b611f3e611f3682611f17565b848454611e99565b825550505050565b600090565b611f53611f46565b611f5e818484611f21565b505050565b5b81811015611f8257611f77600082611f4b565b600181019050611f64565b5050565b601f821115611fc757611f9881611e67565b611fa184611e7c565b81016020851015611fb0578190505b611fc4611fbc85611e7c565b830182611f63565b50505b505050565b600082821c905092915050565b6000611fea60001984600802611fcc565b1980831691505092915050565b60006120038383611fd9565b9150826002028217905092915050565b61201c82611b95565b67ffffffffffffffff81111561203557612034611754565b5b61203f8254611e36565b61204a828285611f86565b600060209050601f83116001811461207d576000841561206b578287015190505b6120758582611ff7565b8655506120dd565b601f19841661208b86611e67565b60005b828110156120b35784890151825560018201915060208501945060208101905061208e565b868310156120d057848901516120cc601f891682611fd9565b8355505b6001600288020188555050505b505050505050565b600060c08201905081810360008301526120ff8189611bdb565b905081810360208301526121138188611bdb565b90506121226040830187611a1e565b61212f606083018661169d565b61213c6080830185611c96565b61214960a083018461169d565b979650505050505050565b7f4f6e6c79206f7267616e697a65722063616e206372656174652074686520436160008201527f6e64696461746573000000000000000000000000000000000000000000000000602082015250565b60006121b0602883611ba0565b91506121bb82612154565b604082019050919050565b600060208201905081810360008301526121df816121a3565b9050919050565b600060a08201905081810360008301526122008188611bdb565b905081810360208301526122148187611bdb565b905081810360408301526122288186611bdb565b9050612237606083018561169d565b6122446080830184611a1e565b9695505050505050565b7f596f75206861766520616c726561647920766f74656400000000000000000000600082015250565b6000612284601683611ba0565b915061228f8261224e565b602082019050919050565b600060208201905081810360008301526122b381612277565b9050919050565b7f596f752068617665206e6f20726967687420746f20766f746500000000000000600082015250565b60006122f0601983611ba0565b91506122fb826122ba565b602082019050919050565b6000602082019050818103600083015261231f816122e3565b9050919050565b7f4e487b7100000000000000000000000000000000000000000000000000000000600052601160045260246000fd5b600061236082611693565b915061236b83611693565b925082820190508082111561238357612382612326565b5b9291505056fea26469706673582212202a7d3a98d82e6f893b7d2fe9f71bc502c4018a40ff8c600339d2c4fe2a2a751564736f6c63430008110033",
  "linkReferences": {},
  "deployedLinkReferences": {}
}